{
  "abi": [
    {
      "type": "constructor",
      "inputs": [
        {
          "name": "_oracle",
          "type": "address",
          "internalType": "address"
        }
      ],
      "stateMutability": "nonpayable"
    },
    {
      "type": "function",
      "name": "addAsset",
      "inputs": [
        {
          "name": "asset",
          "type": "bytes32",
          "internalType": "bytes32"
        },
        {
          "name": "feedId",
          "type": "bytes32",
          "internalType": "bytes32"
        },
        {
          "name": "initMargin",
          "type": "uint256",
          "internalType": "uint256"
        },
        {
          "name": "maintMargin",
          "type": "uint256",
          "internalType": "uint256"
        },
        {
          "name": "takerFee",
          "type": "uint256",
          "internalType": "uint256"
        }
      ],
      "outputs": [],
      "stateMutability": "nonpayable"
    },
    {
      "type": "function",
      "name": "assets",
      "inputs": [
        {
          "name": "",
          "type": "bytes32",
          "internalType": "bytes32"
        }
      ],
      "outputs": [
        {
          "name": "feedId",
          "type": "bytes32",
          "internalType": "bytes32"
        },
        {
          "name": "initMarginBps",
          "type": "uint256",
          "internalType": "uint256"
        },
        {
          "name": "maintMarginBps",
          "type": "uint256",
          "internalType": "uint256"
        },
        {
          "name": "takerFeeBps",
          "type": "uint256",
          "internalType": "uint256"
        },
        {
          "name": "enabled",
          "type": "bool",
          "internalType": "bool"
        }
      ],
      "stateMutability": "view"
    },
    {
      "type": "function",
      "name": "closePosition",
      "inputs": [
        {
          "name": "asset",
          "type": "bytes32",
          "internalType": "bytes32"
        },
        {
          "name": "sizeDelta",
          "type": "uint256",
          "internalType": "uint256"
        }
      ],
      "outputs": [],
      "stateMutability": "nonpayable"
    },
    {
      "type": "function",
      "name": "liquidate",
      "inputs": [
        {
          "name": "trader",
          "type": "address",
          "internalType": "address"
        },
        {
          "name": "asset",
          "type": "bytes32",
          "internalType": "bytes32"
        }
      ],
      "outputs": [],
      "stateMutability": "nonpayable"
    },
    {
      "type": "function",
      "name": "maxNotional",
      "inputs": [
        {
          "name": "marginUsd",
          "type": "uint256",
          "internalType": "uint256"
        },
        {
          "name": "initMarginBps",
          "type": "uint256",
          "internalType": "uint256"
        }
      ],
      "outputs": [
        {
          "name": "",
          "type": "uint256",
          "internalType": "uint256"
        }
      ],
      "stateMutability": "pure"
    },
    {
      "type": "function",
      "name": "openPosition",
      "inputs": [
        {
          "name": "asset",
          "type": "bytes32",
          "internalType": "bytes32"
        },
        {
          "name": "isLong",
          "type": "bool",
          "internalType": "bool"
        },
        {
          "name": "sizeDelta",
          "type": "uint256",
          "internalType": "uint256"
        },
        {
          "name": "marginDelta",
          "type": "uint256",
          "internalType": "uint256"
        }
      ],
      "outputs": [],
      "stateMutability": "payable"
    },
    {
      "type": "function",
      "name": "oracle",
      "inputs": [],
      "outputs": [
        {
          "name": "",
          "type": "address",
          "internalType": "contract PythOracleAdapter"
        }
      ],
      "stateMutability": "view"
    },
    {
      "type": "function",
      "name": "owner",
      "inputs": [],
      "outputs": [
        {
          "name": "",
          "type": "address",
          "internalType": "address"
        }
      ],
      "stateMutability": "view"
    },
    {
      "type": "function",
      "name": "positions",
      "inputs": [
        {
          "name": "",
          "type": "address",
          "internalType": "address"
        },
        {
          "name": "",
          "type": "bytes32",
          "internalType": "bytes32"
        }
      ],
      "outputs": [
        {
          "name": "size",
          "type": "int256",
          "internalType": "int256"
        },
        {
          "name": "entryPrice",
          "type": "int256",
          "internalType": "int256"
        },
        {
          "name": "margin",
          "type": "int256",
          "internalType": "int256"
        }
      ],
      "stateMutability": "view"
    },
    {
      "type": "function",
      "name": "protocolFees",
      "inputs": [],
      "outputs": [
        {
          "name": "",
          "type": "uint256",
          "internalType": "uint256"
        }
      ],
      "stateMutability": "view"
    },
    {
      "type": "event",
      "name": "AssetAdded",
      "inputs": [
        {
          "name": "asset",
          "type": "bytes32",
          "indexed": true,
          "internalType": "bytes32"
        },
        {
          "name": "feedId",
          "type": "bytes32",
          "indexed": false,
          "internalType": "bytes32"
        }
      ],
      "anonymous": false
    },
    {
      "type": "event",
      "name": "Liquidated",
      "inputs": [
        {
          "name": "trader",
          "type": "address",
          "indexed": true,
          "internalType": "address"
        },
        {
          "name": "asset",
          "type": "bytes32",
          "indexed": true,
          "internalType": "bytes32"
        },
        {
          "name": "liquidator",
          "type": "address",
          "indexed": false,
          "internalType": "address"
        },
        {
          "name": "reward",
          "type": "uint256",
          "indexed": false,
          "internalType": "uint256"
        }
      ],
      "anonymous": false
    },
    {
      "type": "event",
      "name": "PositionClosed",
      "inputs": [
        {
          "name": "trader",
          "type": "address",
          "indexed": true,
          "internalType": "address"
        },
        {
          "name": "asset",
          "type": "bytes32",
          "indexed": true,
          "internalType": "bytes32"
        },
        {
          "name": "sizeClosed",
          "type": "uint256",
          "indexed": false,
          "internalType": "uint256"
        },
        {
          "name": "pnl",
          "type": "int256",
          "indexed": false,
          "internalType": "int256"
        },
        {
          "name": "price",
          "type": "uint256",
          "indexed": false,
          "internalType": "uint256"
        }
      ],
      "anonymous": false
    },
    {
      "type": "event",
      "name": "PositionOpened",
      "inputs": [
        {
          "name": "trader",
          "type": "address",
          "indexed": true,
          "internalType": "address"
        },
        {
          "name": "asset",
          "type": "bytes32",
          "indexed": true,
          "internalType": "bytes32"
        },
        {
          "name": "isLong",
          "type": "bool",
          "indexed": false,
          "internalType": "bool"
        },
        {
          "name": "size",
          "type": "uint256",
          "indexed": false,
          "internalType": "uint256"
        },
        {
          "name": "margin",
          "type": "uint256",
          "indexed": false,
          "internalType": "uint256"
        },
        {
          "name": "price",
          "type": "uint256",
          "indexed": false,
          "internalType": "uint256"
        }
      ],
      "anonymous": false
    }
  ],
  "bytecode": {
    "object": "0x60a060405234801561000f575f5ffd5b5060405161228f38038061228f83398181016040528101906100319190610110565b60015f819055508073ffffffffffffffffffffffffffffffffffffffff1660808173ffffffffffffffffffffffffffffffffffffffff16815250503360045f6101000a81548173ffffffffffffffffffffffffffffffffffffffff021916908373ffffffffffffffffffffffffffffffffffffffff1602179055505061013b565b5f5ffd5b5f73ffffffffffffffffffffffffffffffffffffffff82169050919050565b5f6100df826100b6565b9050919050565b6100ef816100d5565b81146100f9575f5ffd5b50565b5f8151905061010a816100e6565b92915050565b5f60208284031215610125576101246100b2565b5b5f610132848285016100fc565b91505092915050565b60805161212061016f5f395f81816103990152818161084a01528181610bb501528181610d2b015261125f01526121205ff3fe608060405260043610610090575f3560e01c80638da5cb5b116100585780638da5cb5b1461016a5780639fda5b6614610194578063dfeba59e146101d4578063ebe9c221146101fc578063f37175c81461022457610090565b80631ad8b03b146100945780632f998c2b146100be57806334176a6d146100da5780633af8c7a6146101185780637dc0d1d014610140575b5f5ffd5b34801561009f575f5ffd5b506100a8610260565b6040516100b5919061140c565b60405180910390f35b6100d860048036038101906100d391906114bb565b610266565b005b3480156100e5575f5ffd5b5061010060048036038101906100fb9190611579565b61076a565b60405161010f939291906115cf565b60405180910390f35b348015610123575f5ffd5b5061013e60048036038101906101399190611579565b61079b565b005b34801561014b575f5ffd5b50610154610bb3565b604051610161919061165f565b60405180910390f35b348015610175575f5ffd5b5061017e610bd7565b60405161018b9190611687565b60405180910390f35b34801561019f575f5ffd5b506101ba60048036038101906101b591906116a0565b610bfc565b6040516101cb9594939291906116e9565b60405180910390f35b3480156101df575f5ffd5b506101fa60048036038101906101f5919061173a565b610c3a565b005b348015610207575f5ffd5b50610222600480360381019061021d9190611778565b61114b565b005b34801561022f575f5ffd5b5061024a600480360381019061024591906117ef565b611322565b604051610257919061140c565b60405180910390f35b60035481565b61026e611344565b5f82116102b0576040517f08c379a00000000000000000000000000000000000000000000000000000000081526004016102a790611887565b60405180910390fd5b8034146102f2576040517f08c379a00000000000000000000000000000000000000000000000000000000081526004016102e9906118ef565b60405180910390fd5b5f60015f8681526020019081526020015f206040518060a00160405290815f8201548152602001600182015481526020016002820154815260200160038201548152602001600482015f9054906101000a900460ff16151515158152505090508060800151610396576040517f08c379a000000000000000000000000000000000000000000000000000000000815260040161038d90611957565b60405180910390fd5b5f7f000000000000000000000000000000000000000000000000000000000000000073ffffffffffffffffffffffffffffffffffffffff166331d98b3f835f01516040518263ffffffff1660e01b81526004016103f39190611975565b602060405180830381865afa15801561040e573d5f5f3e3d5ffd5b505050506040513d601f19601f8201168201806040525081019061043291906119a2565b90505f60025f3373ffffffffffffffffffffffffffffffffffffffff1673ffffffffffffffffffffffffffffffffffffffff1681526020019081526020015f205f8881526020019081526020015f20905083816002015f82825461049691906119fa565b925050819055505f866104b257856104ad90611a3b565b6104b4565b855b90505f670de0b6b3a764000084886104cc9190611a81565b6104d69190611aef565b90505f6127108660600151836104ec9190611a81565b6104f69190611aef565b9050808460020154121561053f576040517f08c379a000000000000000000000000000000000000000000000000000000000815260040161053690611b69565b60405180910390fd5b80846002015f8282546105529190611b87565b925050819055508060035f82825461056a9190611bc7565b925050819055505f845f0154036105915782845f018190555084846001018190555061064a565b5f845f01541380156105a257505f83135b806105ba57505f845f01541280156105b957505f83125b5b1561061b575f83855f01546105cf91906119fa565b90508084876105de9190611bfa565b865f015487600101546105f19190611bfa565b6105fb91906119fa565b6106059190611c70565b856001018190555080855f018190555050610649565b82845f015f82825461062d91906119fa565b925050819055505f845f015403610648575f84600101819055505b5b5b5f845f01540361068f576040517f08c379a000000000000000000000000000000000000000000000000000000000815260040161068690611d22565b60405180910390fd5b5f61069d8560020154611391565b90505f6106ad865f01548861139a565b90506106bd828960200151611322565b8111156106ff576040517f08c379a00000000000000000000000000000000000000000000000000000000081526004016106f690611d8a565b60405180910390fd5b8b3373ffffffffffffffffffffffffffffffffffffffff167f3b42d27f70ad0fdd7eeb05c9a1716722579dc5cd8a7f7c3d405751b15ca7dd628d8d8d8c60405161074c9493929190611da8565b60405180910390a350505050505050506107646113ca565b50505050565b6002602052815f5260405f20602052805f5260405f205f9150915050805f0154908060010154908060020154905083565b6107a3611344565b5f60015f8381526020019081526020015f206040518060a00160405290815f8201548152602001600182015481526020016002820154815260200160038201548152602001600482015f9054906101000a900460ff16151515158152505090508060800151610847576040517f08c379a000000000000000000000000000000000000000000000000000000000815260040161083e90611957565b60405180910390fd5b5f7f000000000000000000000000000000000000000000000000000000000000000073ffffffffffffffffffffffffffffffffffffffff166331d98b3f835f01516040518263ffffffff1660e01b81526004016108a49190611975565b602060405180830381865afa1580156108bf573d5f5f3e3d5ffd5b505050506040513d601f19601f820116820180604052508101906108e391906119a2565b90505f60025f8673ffffffffffffffffffffffffffffffffffffffff1673ffffffffffffffffffffffffffffffffffffffff1681526020019081526020015f205f8581526020019081526020015f2090505f815f015403610979576040517f08c379a000000000000000000000000000000000000000000000000000000000815260040161097090611e35565b60405180910390fd5b5f610987825f01548461139a565b90505f670de0b6b3a7640000835f01548460010154866109a79190611b87565b6109b19190611bfa565b6109bb9190611c70565b90505f8184600201546109ce91906119fa565b90505f8113610a12576040517f08c379a0000000000000000000000000000000000000000000000000000000008152600401610a0990611e9d565b60405180910390fd5b5f612710876040015185610a269190611a81565b610a309190611aef565b9050808210610a74576040517f08c379a0000000000000000000000000000000000000000000000000000000008152600401610a6b90611f05565b60405180910390fd5b5f600a83610a829190611aef565b90508083610a909190611f23565b60035f828254610aa09190611bc7565b9250508190555060025f8b73ffffffffffffffffffffffffffffffffffffffff1673ffffffffffffffffffffffffffffffffffffffff1681526020019081526020015f205f8a81526020019081526020015f205f5f82015f9055600182015f9055600282015f905550503373ffffffffffffffffffffffffffffffffffffffff166108fc8290811502906040515f60405180830381858888f19350505050158015610b4d573d5f5f3e3d5ffd5b50888a73ffffffffffffffffffffffffffffffffffffffff167ff9412fc31b230a847f52786e35aa87c00c91db2f386791f633427fb06dfcbfd43384604051610b97929190611f56565b60405180910390a35050505050505050610baf6113ca565b5050565b7f000000000000000000000000000000000000000000000000000000000000000081565b60045f9054906101000a900473ffffffffffffffffffffffffffffffffffffffff1681565b6001602052805f5260405f205f91509050805f015490806001015490806002015490806003015490806004015f9054906101000a900460ff16905085565b610c42611344565b5f8111610c84576040517f08c379a0000000000000000000000000000000000000000000000000000000008152600401610c7b90611887565b60405180910390fd5b5f60015f8481526020019081526020015f206040518060a00160405290815f8201548152602001600182015481526020016002820154815260200160038201548152602001600482015f9054906101000a900460ff16151515158152505090508060800151610d28576040517f08c379a0000000000000000000000000000000000000000000000000000000008152600401610d1f90611957565b60405180910390fd5b5f7f000000000000000000000000000000000000000000000000000000000000000073ffffffffffffffffffffffffffffffffffffffff166331d98b3f835f01516040518263ffffffff1660e01b8152600401610d859190611975565b602060405180830381865afa158015610da0573d5f5f3e3d5ffd5b505050506040513d601f19601f82011682018060405250810190610dc491906119a2565b90505f60025f3373ffffffffffffffffffffffffffffffffffffffff1673ffffffffffffffffffffffffffffffffffffffff1681526020019081526020015f205f8681526020019081526020015f2090505f815f015403610e5a576040517f08c379a0000000000000000000000000000000000000000000000000000000008152600401610e5190611e35565b60405180910390fd5b5f5f825f015413610e745784610e6f90611a3b565b610e76565b845b9050610e84825f01546113d3565b610e8d826113d3565b1115610ece576040517f08c379a0000000000000000000000000000000000000000000000000000000008152600401610ec590611fc7565b60405180910390fd5b5f670de0b6b3a764000082846001015486610ee99190611b87565b610ef39190611bfa565b610efd9190611c70565b905080836002015f828254610f1291906119fa565b925050819055505f6127108660600151670de0b6b3a7640000878a610f379190611a81565b610f419190611aef565b610f4b9190611a81565b610f559190611aef565b90508084600201541215610f9e576040517f08c379a0000000000000000000000000000000000000000000000000000000008152600401610f9590611b69565b60405180910390fd5b80846002015f828254610fb19190611b87565b925050819055508060035f828254610fc99190611bc7565b9250508190555082845f015f828254610fe29190611b87565b925050819055505f845f0154036110e6575f8460020154905060025f3373ffffffffffffffffffffffffffffffffffffffff1673ffffffffffffffffffffffffffffffffffffffff1681526020019081526020015f205f8a81526020019081526020015f205f5f82015f9055600182015f9055600282015f905550505f81136110a0576040517f08c379a000000000000000000000000000000000000000000000000000000000815260040161109790611e9d565b60405180910390fd5b3373ffffffffffffffffffffffffffffffffffffffff166108fc8290811502906040515f60405180830381858888f193505050501580156110e3573d5f5f3e3d5ffd5b50505b873373ffffffffffffffffffffffffffffffffffffffff167f26e721f82c4da12768888ee4c6cb06addacfed6be1327d8316834c3f805a70d089858960405161113193929190611fe5565b60405180910390a35050505050506111476113ca565b5050565b60045f9054906101000a900473ffffffffffffffffffffffffffffffffffffffff1673ffffffffffffffffffffffffffffffffffffffff163373ffffffffffffffffffffffffffffffffffffffff16146111da576040517f08c379a00000000000000000000000000000000000000000000000000000000081526004016111d190612064565b60405180910390fd5b6040518060a001604052808581526020018481526020018381526020018281526020016001151581525060015f8781526020019081526020015f205f820151815f01556020820151816001015560408201518160020155606082015181600301556080820151816004015f6101000a81548160ff0219169083151502179055509050507f000000000000000000000000000000000000000000000000000000000000000073ffffffffffffffffffffffffffffffffffffffff1663c59458ff856040518263ffffffff1660e01b81526004016112b69190611975565b5f604051808303815f87803b1580156112cd575f5ffd5b505af11580156112df573d5f5f3e3d5ffd5b50505050847f078b4d4d13227ded38598410a30cda631a17d56b80186a8d8a81723b2e888370856040516113139190611975565b60405180910390a25050505050565b5f81612710846113329190611a81565b61133c9190611aef565b905092915050565b60025f5403611388576040517f08c379a000000000000000000000000000000000000000000000000000000000815260040161137f906120cc565b60405180910390fd5b60025f81905550565b5f819050919050565b5f670de0b6b3a7640000826113ae856113d3565b6113b89190611a81565b6113c29190611aef565b905092915050565b60015f81905550565b5f5f8212156113eb57816113e690611a3b565b6113ed565b815b9050919050565b5f819050919050565b611406816113f4565b82525050565b5f60208201905061141f5f8301846113fd565b92915050565b5f5ffd5b5f819050919050565b61143b81611429565b8114611445575f5ffd5b50565b5f8135905061145681611432565b92915050565b5f8115159050919050565b6114708161145c565b811461147a575f5ffd5b50565b5f8135905061148b81611467565b92915050565b61149a816113f4565b81146114a4575f5ffd5b50565b5f813590506114b581611491565b92915050565b5f5f5f5f608085870312156114d3576114d2611425565b5b5f6114e087828801611448565b94505060206114f18782880161147d565b9350506040611502878288016114a7565b9250506060611513878288016114a7565b91505092959194509250565b5f73ffffffffffffffffffffffffffffffffffffffff82169050919050565b5f6115488261151f565b9050919050565b6115588161153e565b8114611562575f5ffd5b50565b5f813590506115738161154f565b92915050565b5f5f6040838503121561158f5761158e611425565b5b5f61159c85828601611565565b92505060206115ad85828601611448565b9150509250929050565b5f819050919050565b6115c9816115b7565b82525050565b5f6060820190506115e25f8301866115c0565b6115ef60208301856115c0565b6115fc60408301846115c0565b949350505050565b5f819050919050565b5f61162761162261161d8461151f565b611604565b61151f565b9050919050565b5f6116388261160d565b9050919050565b5f6116498261162e565b9050919050565b6116598161163f565b82525050565b5f6020820190506116725f830184611650565b92915050565b6116818161153e565b82525050565b5f60208201905061169a5f830184611678565b92915050565b5f602082840312156116b5576116b4611425565b5b5f6116c284828501611448565b91505092915050565b6116d481611429565b82525050565b6116e38161145c565b82525050565b5f60a0820190506116fc5f8301886116cb565b61170960208301876113fd565b61171660408301866113fd565b61172360608301856113fd565b61173060808301846116da565b9695505050505050565b5f5f604083850312156117505761174f611425565b5b5f61175d85828601611448565b925050602061176e858286016114a7565b9150509250929050565b5f5f5f5f5f60a0868803121561179157611790611425565b5b5f61179e88828901611448565b95505060206117af88828901611448565b94505060406117c0888289016114a7565b93505060606117d1888289016114a7565b92505060806117e2888289016114a7565b9150509295509295909350565b5f5f6040838503121561180557611804611425565b5b5f611812858286016114a7565b9250506020611823858286016114a7565b9150509250929050565b5f82825260208201905092915050565b7f73697a653d3000000000000000000000000000000000000000000000000000005f82015250565b5f61187160068361182d565b915061187c8261183d565b602082019050919050565b5f6020820190508181035f83015261189e81611865565b9050919050565b7f6261642076616c756500000000000000000000000000000000000000000000005f82015250565b5f6118d960098361182d565b91506118e4826118a5565b602082019050919050565b5f6020820190508181035f830152611906816118cd565b9050919050565b7f64697361626c65640000000000000000000000000000000000000000000000005f82015250565b5f61194160088361182d565b915061194c8261190d565b602082019050919050565b5f6020820190508181035f83015261196e81611935565b9050919050565b5f6020820190506119885f8301846116cb565b92915050565b5f8151905061199c81611491565b92915050565b5f602082840312156119b7576119b6611425565b5b5f6119c48482850161198e565b91505092915050565b7f4e487b71000000000000000000000000000000000000000000000000000000005f52601160045260245ffd5b5f611a04826115b7565b9150611a0f836115b7565b92508282019050828112155f8312168382125f841215161715611a3557611a346119cd565b5b92915050565b5f611a45826115b7565b91507f80000000000000000000000000000000000000000000000000000000000000008203611a7757611a766119cd565b5b815f039050919050565b5f611a8b826113f4565b9150611a96836113f4565b9250828202611aa4816113f4565b91508282048414831517611abb57611aba6119cd565b5b5092915050565b7f4e487b71000000000000000000000000000000000000000000000000000000005f52601260045260245ffd5b5f611af9826113f4565b9150611b04836113f4565b925082611b1457611b13611ac2565b5b828204905092915050565b7f6665653e6d617267696e000000000000000000000000000000000000000000005f82015250565b5f611b53600a8361182d565b9150611b5e82611b1f565b602082019050919050565b5f6020820190508181035f830152611b8081611b47565b9050919050565b5f611b91826115b7565b9150611b9c836115b7565b925082820390508181125f8412168282135f851215161715611bc157611bc06119cd565b5b92915050565b5f611bd1826113f4565b9150611bdc836113f4565b9250828201905080821115611bf457611bf36119cd565b5b92915050565b5f611c04826115b7565b9150611c0f836115b7565b9250828202611c1d816115b7565b91507f800000000000000000000000000000000000000000000000000000000000000084145f84121615611c5457611c536119cd565b5b8282058414831517611c6957611c686119cd565b5b5092915050565b5f611c7a826115b7565b9150611c85836115b7565b925082611c9557611c94611ac2565b5b60015f0383147f800000000000000000000000000000000000000000000000000000000000000083141615611ccd57611ccc6119cd565b5b828205905092915050565b7f7a65726f000000000000000000000000000000000000000000000000000000005f82015250565b5f611d0c60048361182d565b9150611d1782611cd8565b602082019050919050565b5f6020820190508181035f830152611d3981611d00565b9050919050565b7f6c657665726167650000000000000000000000000000000000000000000000005f82015250565b5f611d7460088361182d565b9150611d7f82611d40565b602082019050919050565b5f6020820190508181035f830152611da181611d68565b9050919050565b5f608082019050611dbb5f8301876116da565b611dc860208301866113fd565b611dd560408301856113fd565b611de260608301846113fd565b95945050505050565b7f6e6f20706f7300000000000000000000000000000000000000000000000000005f82015250565b5f611e1f60068361182d565b9150611e2a82611deb565b602082019050919050565b5f6020820190508181035f830152611e4c81611e13565b9050919050565b7f62616e6b727570740000000000000000000000000000000000000000000000005f82015250565b5f611e8760088361182d565b9150611e9282611e53565b602082019050919050565b5f6020820190508181035f830152611eb481611e7b565b9050919050565b7f73616665000000000000000000000000000000000000000000000000000000005f82015250565b5f611eef60048361182d565b9150611efa82611ebb565b602082019050919050565b5f6020820190508181035f830152611f1c81611ee3565b9050919050565b5f611f2d826113f4565b9150611f38836113f4565b9250828203905081811115611f5057611f4f6119cd565b5b92915050565b5f604082019050611f695f830185611678565b611f7660208301846113fd565b9392505050565b7f746f6f206d7563680000000000000000000000000000000000000000000000005f82015250565b5f611fb160088361182d565b9150611fbc82611f7d565b602082019050919050565b5f6020820190508181035f830152611fde81611fa5565b9050919050565b5f606082019050611ff85f8301866113fd565b61200560208301856115c0565b61201260408301846113fd565b949350505050565b7f6f776e65720000000000000000000000000000000000000000000000000000005f82015250565b5f61204e60058361182d565b91506120598261201a565b602082019050919050565b5f6020820190508181035f83015261207b81612042565b9050919050565b7f5265656e7472616e637947756172643a207265656e7472616e742063616c6c005f82015250565b5f6120b6601f8361182d565b91506120c182612082565b602082019050919050565b5f6020820190508181035f8301526120e3816120aa565b905091905056fea2646970667358221220e3a38604a8522e3ed291664f383fb33e7ed57660d17d88cc949984cfacc0f60e64736f6c634300081e0033",
    "linkReferences": {}
  },
  "methodIdentifiers": {
    "addAsset(bytes32,bytes32,uint256,uint256,uint256)": "ebe9c221",
    "assets(bytes32)": "9fda5b66",
    "closePosition(bytes32,uint256)": "dfeba59e",
    "liquidate(address,bytes32)": "3af8c7a6",
    "maxNotional(uint256,uint256)": "f37175c8",
    "openPosition(bytes32,bool,uint256,uint256)": "2f998c2b",
    "oracle()": "7dc0d1d0",
    "owner()": "8da5cb5b",
    "positions(address,bytes32)": "34176a6d",
    "protocolFees()": "1ad8b03b"
  },
  "id": 24
}