{
  "abi": [
    {
      "type": "constructor",
      "inputs": [
        {
          "name": "_pyth",
          "type": "address",
          "internalType": "address"
        }
      ],
      "stateMutability": "nonpayable"
    },
    {
      "type": "function",
      "name": "addAsset",
      "inputs": [
        {
          "name": "feedId",
          "type": "bytes32",
          "internalType": "bytes32"
        }
      ],
      "outputs": [],
      "stateMutability": "nonpayable"
    },
    {
      "type": "function",
      "name": "getPrice",
      "inputs": [
        {
          "name": "feedId",
          "type": "bytes32",
          "internalType": "bytes32"
        }
      ],
      "outputs": [
        {
          "name": "",
          "type": "uint256",
          "internalType": "uint256"
        }
      ],
      "stateMutability": "view"
    },
    {
      "type": "function",
      "name": "pyth",
      "inputs": [],
      "outputs": [
        {
          "name": "",
          "type": "address",
          "internalType": "contract IPyth"
        }
      ],
      "stateMutability": "view"
    },
    {
      "type": "function",
      "name": "supportedFeedIds",
      "inputs": [
        {
          "name": "",
          "type": "bytes32",
          "internalType": "bytes32"
        }
      ],
      "outputs": [
        {
          "name": "",
          "type": "bool",
          "internalType": "bool"
        }
      ],
      "stateMutability": "view"
    }
  ],
  "bytecode": {
    "object": "0x60a060405234801561000f575f5ffd5b506040516108e23803806108e2833981810160405281019061003191906100c9565b8073ffffffffffffffffffffffffffffffffffffffff1660808173ffffffffffffffffffffffffffffffffffffffff1681525050506100f4565b5f5ffd5b5f73ffffffffffffffffffffffffffffffffffffffff82169050919050565b5f6100988261006f565b9050919050565b6100a88161008e565b81146100b2575f5ffd5b50565b5f815190506100c38161009f565b92915050565b5f602082840312156100de576100dd61006b565b5b5f6100eb848285016100b5565b91505092915050565b6080516107cf6101135f395f818161014801526102b301526107cf5ff3fe608060405234801561000f575f5ffd5b506004361061004a575f3560e01c806331d98b3f1461004e5780637e18cc291461007e578063c59458ff146100ae578063f98d06f0146100ca575b5f5ffd5b61006860048036038101906100639190610315565b6100e8565b6040516100759190610358565b60405180910390f35b61009860048036038101906100939190610315565b61026a565b6040516100a5919061038b565b60405180910390f35b6100c860048036038101906100c39190610315565b610286565b005b6100d26102b1565b6040516100df919061041e565b60405180910390f35b5f5f5f8381526020019081526020015f205f9054906101000a900460ff16610145576040517f08c379a000000000000000000000000000000000000000000000000000000000815260040161013c90610491565b60405180910390fd5b5f7f000000000000000000000000000000000000000000000000000000000000000073ffffffffffffffffffffffffffffffffffffffff166396834ad3846040518263ffffffff1660e01b815260040161019f91906104be565b608060405180830381865afa1580156101ba573d5f5f3e3d5ffd5b505050506040513d601f19601f820116820180604052508101906101de91906106ab565b905073__$65759db3abb9c68754ca4eab7e42deed6d$__63b55522b2825f0151836040015160126040518463ffffffff1660e01b815260040161022393929190610739565b602060405180830381865af415801561023e573d5f5f3e3d5ffd5b505050506040513d601f19601f82011682018060405250810190610262919061076e565b915050919050565b5f602052805f5260405f205f915054906101000a900460ff1681565b60015f5f8381526020019081526020015f205f6101000a81548160ff02191690831515021790555050565b7f000000000000000000000000000000000000000000000000000000000000000081565b5f604051905090565b5f5ffd5b5f819050919050565b6102f4816102e2565b81146102fe575f5ffd5b50565b5f8135905061030f816102eb565b92915050565b5f6020828403121561032a576103296102de565b5b5f61033784828501610301565b91505092915050565b5f819050919050565b61035281610340565b82525050565b5f60208201905061036b5f830184610349565b92915050565b5f8115159050919050565b61038581610371565b82525050565b5f60208201905061039e5f83018461037c565b92915050565b5f73ffffffffffffffffffffffffffffffffffffffff82169050919050565b5f819050919050565b5f6103e66103e16103dc846103a4565b6103c3565b6103a4565b9050919050565b5f6103f7826103cc565b9050919050565b5f610408826103ed565b9050919050565b610418816103fe565b82525050565b5f6020820190506104315f83018461040f565b92915050565b5f82825260208201905092915050565b7f66656564206e6f7420737570706f7274656400000000000000000000000000005f82015250565b5f61047b601283610437565b915061048682610447565b602082019050919050565b5f6020820190508181035f8301526104a88161046f565b9050919050565b6104b8816102e2565b82525050565b5f6020820190506104d15f8301846104af565b92915050565b5f5ffd5b5f601f19601f8301169050919050565b7f4e487b71000000000000000000000000000000000000000000000000000000005f52604160045260245ffd5b610521826104db565b810181811067ffffffffffffffff821117156105405761053f6104eb565b5b80604052505050565b5f6105526102d5565b905061055e8282610518565b919050565b5f8160070b9050919050565b61057881610563565b8114610582575f5ffd5b50565b5f815190506105938161056f565b92915050565b5f67ffffffffffffffff82169050919050565b6105b581610599565b81146105bf575f5ffd5b50565b5f815190506105d0816105ac565b92915050565b5f8160030b9050919050565b6105eb816105d6565b81146105f5575f5ffd5b50565b5f81519050610606816105e2565b92915050565b61061581610340565b811461061f575f5ffd5b50565b5f815190506106308161060c565b92915050565b5f6080828403121561064b5761064a6104d7565b5b6106556080610549565b90505f61066484828501610585565b5f830152506020610677848285016105c2565b602083015250604061068b848285016105f8565b604083015250606061069f84828501610622565b60608301525092915050565b5f608082840312156106c0576106bf6102de565b5b5f6106cd84828501610636565b91505092915050565b6106df81610563565b82525050565b6106ee816105d6565b82525050565b5f819050919050565b5f60ff82169050919050565b5f61072361071e610719846106f4565b6103c3565b6106fd565b9050919050565b61073381610709565b82525050565b5f60608201905061074c5f8301866106d6565b61075960208301856106e5565b610766604083018461072a565b949350505050565b5f60208284031215610783576107826102de565b5b5f61079084828501610622565b9150509291505056fea264697066735822122068c26e8c61d3ed1c5c457785af94aabadac905d7c202dd4b5d3ff3e4d3c2d76464736f6c634300081e0033",
    "linkReferences": {
      "node_modules/@pythnetwork/pyth-sdk-solidity/PythUtils.sol": {
        "PythUtils": [
          {
            "start": 757,
            "length": 20
          }
        ]
      }
    }
  },
  "methodIdentifiers": {
    "addAsset(bytes32)": "c59458ff",
    "getPrice(bytes32)": "31d98b3f",
    "pyth()": "f98d06f0",
    "supportedFeedIds(bytes32)": "7e18cc29"
  },
  "id": 25
}